{
  "contractName": "Root",
  "abi": [
    {
      "anonymous": false,
      "inputs": [
        {
          "indexed": false,
          "name": "newOwnerId",
          "type": "uint256"
        },
        {
          "indexed": false,
          "name": "tokenId",
          "type": "uint256"
        }
      ],
      "name": "TokenAdded",
      "type": "event"
    },
    {
      "constant": false,
      "inputs": [
        {
          "name": "photoHash",
          "type": "string"
        },
        {
          "name": "coordinates",
          "type": "uint256"
        },
        {
          "name": "newOwnerId",
          "type": "uint256"
        }
      ],
      "name": "buyToken",
      "outputs": [],
      "payable": true,
      "stateMutability": "payable",
      "type": "function"
    },
    {
      "constant": true,
      "inputs": [
        {
          "name": "owner",
          "type": "uint256"
        }
      ],
      "name": "getTokensCount",
      "outputs": [
        {
          "name": "",
          "type": "uint256"
        }
      ],
      "payable": false,
      "stateMutability": "view",
      "type": "function"
    }
  ],
  "bytecode": "0x6060604052341561000f57600080fd5b61030c8061001e6000396000f30060606040526004361061004c576000357c0100000000000000000000000000000000000000000000000000000000900463ffffffff1680635ab8ea3314610051578063629c7adb146100b5575b600080fd5b6100b3600480803590602001908201803590602001908080601f016020809104026020016040519081016040528093929190818152602001838380828437820191505050505050919080359060200190919080359060200190919050506100ec565b005b34156100c057600080fd5b6100d6600480803590602001909190505061021c565b6040518082815260200191505060405180910390f35b600083836040518083805190602001908083835b6020831015156101255780518252602082019150602081019050602083039250610100565b6001836020036101000a038019825116818451168082178552505050505050905001828152602001925050506040518091039020600190049050836000808481526020019081526020016000206000016000858152602001908152602001600020908051906020019061019992919061023b565b50600080838152602001908152602001600020600101600081548092919060010191905055508160016000838152602001908152602001600020819055507f7713a460c4ef3baceee6275b7dab936881047949b93f0559ce44de5c0a28e5968282604051808381526020018281526020019250505060405180910390a150505050565b6000806000838152602001908152602001600020600101549050919050565b828054600181600116156101000203166002900490600052602060002090601f016020900481019282601f1061027c57805160ff19168380011785556102aa565b828001600101855582156102aa579182015b828111156102a957825182559160200191906001019061028e565b5b5090506102b791906102bb565b5090565b6102dd91905b808211156102d95760008160009055506001016102c1565b5090565b905600a165627a7a7230582065a8c6965b4699ad168483b4970bf9f08f7c0b8bb895e9e541252d851d380dab0029",
  "source": "pragma solidity ^0.4.21;\n\ncontract Root {\n\n    event TokenAdded(uint newOwnerId, uint tokenId);\n \n    mapping(uint => State) states;\n\n    mapping(uint => uint) tokens;\n\n    // uint[] tokenList;\n\n    struct State {\n        mapping(uint => string) photo;\n        uint count;\n    }\n\n    function buyToken(string photoHash, uint coordinates, uint newOwnerId) public payable {\n        uint tokenId = uint(keccak256(photoHash, coordinates));\n        // require(tokens[tokenId] > 1, \"This token already exists\");\n        // tokenList.push(tokenId);\n        states[newOwnerId].photo[coordinates] = photoHash;\n        states[newOwnerId].count++;\n        tokens[tokenId] = newOwnerId;\n\n        emit TokenAdded(newOwnerId, tokenId);\n    }\n\n    function getTokensCount(uint owner) public view returns(uint){\n        return states[owner].count;\n    }\n}",
  "sourcePath": "/usr/src/app/contracts/Root.sol",
  "compiler": {
    "name": "solc",
    "version": "0.4.21+commit.dfe3193c.Emscripten.clang"
  },
  "schemaVersion": "2.0.0",
  "updatedAt": "2018-11-18T09:11:10.258Z"
}